:020000040000FA
:100000000C947B010C94310E0C940A0E0C94A301F9
:100010000C94A3010C94A3010C94A3010C94A301D0
:100020000C94A3010C94A3010C94A3010C94A301C0
:100030000C94A3010C94A3010C94A3010C94A301B0
:100040000C94C00D0C94A3010C947E0E0C94580ECD
:100050000C94A3010C94A3010C94A3010C94A30190
:100060000C94A3010C94A3010D0A007B5B28620091
:100070000D0A007B5B2875002D2D2D2D2D2D2D2D8E
:100080002053657269616C20496E20537472696EE9
:1000900067203A200053657269616C652052656182
:1000A00064793A2000202020626175643D00302090
:1000B000202020202E206D656EC3B920504C436354
:1000C0006C617373497374003120202020202E202E
:1000D00074696D65724369636C69636900322020DD
:1000E0002020202E2074696D657245636F6E7461E7
:1000F000746F7269003320202020202E2070726FD0
:1001000076614D6F727365003420202020202E20F0
:100110004D6F7273654D756C7469706C6900352034
:10012000202020202E206C616D7065676769003685
:1001300020202020202E2070726F766120696C2094
:1001400063726F6E6F6D6574726F003720202020B0
:10015000202E206C616D7065676769003820202053
:1001600020202E20547261736D657474692061645F
:1001700020457863656C3A002F54313030202E20B2
:10018000546369636C6F20696E76696F206578636C
:10019000656C002F42393620202E207269617676F8
:1001A00069612073657269616C6520393630302071
:1001B00062617564002F42313120202E2072696106
:1001C000767669612073657269616C6520313135BD
:1001D0003230302062617564002072696176766920
:1001E0006F2073657269616C65206120393630302B
:1001F000206261756400207269617676696F207390
:10020000657269616C652061203131353230302092
:10021000626175640068656C6C6F20776F726C64E6
:100220000014006200B000FE004C019A01E80136A3
:10023000028402D20220036E03BC031E009D001C38
:10024000019B011A0299021803970364006304ECEE
:10025000FF3A008800D60024017201C0010E025C42
:1002600002AA02F80246039403E2FF6100E0005F85
:1002700001DE015D02DC025B039CFF9B031414148E
:100280001414141403030A0A74656D706F206D65ED
:1002900064696F206369636C6F2000206D6963720D
:1002A0006F730000000000240027002A00000000F7
:1002B00000250028002B00040404040404040402A4
:1002C00002020202020303030303030102040810F3
:1002D00020408001020408102001020408102000C0
:1002E00000000800020100000304070000000000F5
:1002F00000000000B00E11241FBECFEFD8E0DEBF1B
:10030000CDBF11E0A0E0B1E0E4E7F8E302C0059062
:100310000D92A634B107D9F724E0A6E4B1E001C0FC
:100320001D92A334B207E1F711E0CBE7D1E004C09E
:100330002197FE010E94D01BCA37D107C9F70E943E
:10034000300F0C94381C0C9400000F93AC01A0915A
:100350004204A13408F055C020919003203109F4E3
:1003600050C090918E03E92FF0E0EE0FFF1FEA5B83
:10037000FC4F51A740A79F5F9F7090938E032F5F04
:1003800020939003E091410421E030E040E050E010
:1003900060E070E080E090E00E2F0E94D61BF091AC
:1003A00038042F2B2093380420913904322B3093BA
:1003B000390420913A04422B40933A0420913B04A3
:1003C000522B50933B0420913C04622B60933C04DD
:1003D00020913D04722B70933D0420913E04822BAA
:1003E00080933E0480913F04982B90933F04EF5FED
:1003F000EF73E0934104AF5FA093420481E00F915B
:10040000089580E0FCCF90E0FC01E152FD4F249183
:10041000FC01E553FD4F3491FC01E954FD4FE4919B
:10042000EE23C9F0222339F0233001F1A8F4213062
:1004300019F1223029F1F0E0EE0FFF1FE355FD4FD7
:10044000A591B4918FB7F894EC91611126C03095C5
:100450003E233C938FBF08952730A9F02830C9F080
:10046000243049F7809180008F7D03C08091800007
:100470008F7780938000DFCF84B58F7784BDDBCF0B
:1004800084B58F7DFBCF8091B0008F778093B000D3
:10049000D2CF8091B0008F7DF9CF3E2BDACFCF93B2
:1004A000DF9390E0FC01E553FD4F249189549D4F6B
:1004B000FC0184918823D1F090E0880F991FFC0102
:1004C000ED55FD4FA591B491FC01E355FD4FC5914C
:1004D000D491623071F49FB7F8943C91822F80954B
:1004E00083238C93E8812E2B28839FBFDF91CF91AC
:1004F00008958FB7F894EC912E2B2C938FBFF6CFE5
:100500003FB7F8948091A5029091A602A091A7020E
:10051000B091A80226B5A89B05C02F3F19F00196FF
:10052000A11DB11D3FBFBA2FA92F982F8827BC014D
:10053000CD01620F711D811D911D42E0660F771F75
:10054000881F991F4A95D1F7089589B199B193FBF6
:10055000992790F982FB882780F99817D9F081E0D4
:1005600090E040914601509147016091480170919F
:100570004901092E000CAA0BBB0B840F951FA61F67
:10058000B71F8093460190934701A0934801B09311
:10059000490108958FEF9FEFE4CF89B199B193FBA3
:1005A000992790F982FB882780F99817D9F08FEF67
:1005B0009FEF409146015091470160914801709131
:1005C0004901092E000CAA0BBB0B840F951FA61F17
:1005D000B71F8093460190934701A0934801B093C1
:1005E0004901089581E090E0E4CF0895AF92BF9271
:1005F000CF92DF92EF92FF920F931F93CF93DF93EF
:100600006C017B018B01040F151FEB015E01AE181D
:10061000BF08C017D10759F06991D601ED91FC913F
:100620000190F081E02DC6010995892B79F7C5016C
:10063000DF91CF911F910F91FF90EF90DF90CF90BE
:10064000BF90AF900895FC01538D448D252F30E06D
:10065000842F90E0821B930B541710F0CF960895CF
:1006600001970895FC01918D828D981761F0A28DFC
:10067000AE0FBF2FB11D5D968C91928D9F5F9F73C2
:10068000928F90E008958FEF9FEF0895FC01918D78
:10069000828D981731F0828DE80FF11D858D90E0E5
:1006A00008958FEF9FEF0895FC01918D228D892F82
:1006B00090E0805C9F4F821B91098F73992708956A
:1006C00089EA92E00E94540321E0892B09F420E09A
:1006D000822F089580E090E0892B29F00E9460032A
:1006E00081110C9400000895FC01A48DA80FB92F6E
:1006F000B11DA35ABF4F2C91848D90E001968F734A
:100700009927848FA689B7892C93A089B1898C9168
:10071000837080648C93938D848D981306C00288B7
:10072000F389E02D80818F7D80830895EF92FF9281
:100730000F931F93CF93DF93EC0181E0888F9B8D04
:100740008C8D98131AC0E889F989808185FF15C0BE
:100750009FB7F894EE89FF896083E889F9898081E1
:100760008370806480839FBF81E090E0DF91CF91B0
:100770001F910F91FF90EF900895F62E0B8D10E0D2
:100780000F5F1F4F0F731127E02E8C8D8E110CC041
:100790000FB607FCFACFE889F989808185FFF5CF8C
:1007A000CE010E947403F1CFEB8DEC0FFD2FF11DF4
:1007B000E35AFF4FF0829FB7F8940B8FEA89FB89C9
:1007C00080818062CFCF0F931F93CF93DF938C01F3
:1007D000D0E0C0E0F801EC0FFD1F6491662341F00A
:1007E00089EA92E00E949603892B11F02196F2CFBC
:1007F000CE01DF91CF911F910F910895CF93DF9399
:10080000EC01888D8823B9F0AA89BB89E889F98928
:100810008C9185FD03C0808186FD0DC00FB607FC5D
:10082000F7CF8C9185FFF2CF808185FFEDCFCE0190
:100830000E947403E9CFDF91CF9108958F929F9228
:10084000AF92BF92CF92DF92EF92FF9260936803D4
:100850007093690380936A0390936B0389EA92E033
:100860000E94FE03E091BB02F091BC0280818F7E6A
:100870008083E091BB02F091BC028081877F8083FE
:10088000E091BB02F091BC0280818F778083E09180
:10089000BB02F091BC0280818F7D80838091C30276
:1008A0008093C2020E9480024B015C0122E3C22EAF
:1008B000D12CE12CF12C0E948002681979098A0957
:1008C0009B09683E734081059105A8F321E0C21A97
:1008D000D108E108F10888EE880E83E0981EA11C7B
:1008E000B11CC114D104E104F10429F7C0906803DC
:1008F000D0906903E0906A03F0906B03E091B90235
:10090000F091BA0282E08083C11481EED806E1043E
:10091000F104A1F060E079E08DE390E0A701960199
:100920000E94AE1B21503109410951095695479546
:1009300037952795211580E13807A8F0E091B90295
:10094000F091BA02108260E874E88EE190E0A701AD
:1009500096010E94AE1B215031094109510956955B
:10096000479537952795E091B502F091B60230830F
:10097000E091B702F091B80220831092C102E09199
:10098000BD02F091BE0286E08083E091BB02F0914F
:10099000BC02808180618083E091BB02F091BC0247
:1009A000808188608083E091BB02F091BC028081ED
:1009B00080688083E091BB02F091BC0280818F7DD2
:1009C0008083FF90EF90DF90CF90BF90AF909F908B
:1009D0008F9008950C94E30388E790E00E94EA0466
:1009E00081E0089589ED91E00E94EA0460E875E2F3
:1009F00080E090E00E941E0481E0089586EF91E07F
:100A00000E94EA0460E072EC81E090E00E941E0423
:100A100081E008958230A9F028F4882341F08130E4
:100A200061F00895833089F0843099F008958091C1
:100A30009F02856080939F02089580919F028A6043
:100A4000F9CF80919F028461F5CF80919F028E60E3
:100A5000F1CF80919F028F61EDCF8091B70184FD2E
:100A600014C084E690E0A0E0B0E08093A2019093EF
:100A7000A301A093A401B093A50180938201909358
:100A80008301A0938401B09385018091B8018061B6
:100A90008093B8018091B30184FF05C080919F02CB
:100AA0008F6180939F0208958230A9F028F48823F3
:100AB00041F0813061F00895833089F0843099F0FD
:100AC000089580919F02816080939F020895809194
:100AD0009F028260F9CF80919F028460F5CF809160
:100AE0009F028860F1CF0C942D052F923F924F9278
:100AF0005F926F927F928F929F92AF92BF92CF92AE
:100B0000DF92EF92FF920F931F93CF93DF93CDB7B6
:100B1000DEB761970FB6F894DEBF0FBECDBF8091F0
:100B20006D03813059F028F0823009F474C381E0FC
:100B300059C38BE690E00E94EA0453C3F0909602FA
:100B40002F2D30E04F2D417050E085E0440F551FB0
:100B50008A95E1F7B90195E0660F771F9A95E1F75D
:100B600060747727C9019595879595958795969592
:100B7000982F882797958795AF2DAF71FA2EF42A75
:100B8000F82AF62AF9824901E3E096948794EA95D7
:100B9000E1F7E2E08E2299247901F3E0F694E794FC
:100BA000FA95E1F7A4E0EA22FF24E82823FB882451
:100BB00080F88E287901EE0CEF2CEE1CFF08B4E0D3
:100BC000EE0CFF1CBA95E1F7842BE82A6E2913E09E
:100BD000369527951A95E1F728703327262B282973
:100BE0002A838091D9019091DA0120919702309166
:100BF0009802BC0103E0660F771F0A95E1F7687061
:100C00007727A90174E0440F551F7A95E1F74071E9
:100C10005527642BAC0156954795569547955695A3
:100C2000542F442757954795642BAC01A4E0440FFB
:100C3000551FAA95E1F740725527642BA901B5E02D
:100C4000440F551FBA95E1F740745527462B842A67
:100C50008B82AC0116E0569547951A95E1F75695AB
:100C6000542F44275795479522FB662760F9642B3C
:100C7000AC01569547955695479542705527642B7C
:100C8000A9015695479544705527642BAC0156959C
:100C9000479548705527462BB90160717727462B39
:100CA000BC0160727727642BA901440F551F407463
:100CB0005527462B4C83AC01452F55274695469525
:100CC0005695542F44275795479526FB662760F97C
:100CD000642BAC0106E0569547950A95E1F7427002
:100CE0005527642BA90175E0569547957A95E1F74C
:100CF00044705527642BAC01E5E056954795EA957D
:100D0000E1F748705527642BA901F4E05695479503
:100D1000FA95E1F740715527642BA4E096958795E5
:100D2000AA95E1F780729927862BB901B3E07695F1
:100D30006795BA95E1F760747727682B6D8380918A
:100D4000C401682F70E0082F017010E0C801880FFF
:100D5000991F8B0196E0159507959A95E1F71695E1
:100D6000102F002717950795082B32FB882780F94D
:100D7000082BCB01880F991F84709927082BCB0172
:100D8000880F991F88709927082BCB01880F991F0E
:100D900080719927082BCB01880F991F80729927A2
:100DA000082BCB01880F991F80749927802B8E8385
:100DB00080908F02282D30E090909002892D90E055
:100DC0007901F594E794AC015595479589011595FE
:100DD00007951595079580FACC24C0F8D12CCC0C3A
:100DE000DD1CE92DE170F0E0A3E0EE0FFF1FAA95F6
:100DF000E1F7EC29660F672F661F770B6E2B380122
:100E00007694762C662477946794662AB701E4E09A
:100E1000660F771FEA95E1F760717727662ABA01B6
:100E2000F6E0660F771FFA95E1F760747727662979
:100E300090948920A82DA170B0E0AA0FBB1FAA0F23
:100E4000BB1FA62B409550954E215F2165E0440FB6
:100E5000551F6A95E1F740725527A42BAF83FC011B
:100E6000F595E795F595E7956901A3E0D594C794C5
:100E7000AA95E1F7BC01B3E075956795BA95E1F7DE
:100E8000790114E0F594E7941A95E1F7AC01A4E038
:100E900055954795AA95E1F74F01880C991CA2E05A
:100EA0008A229924D601AA0FBB1FAA0FBB1FA470C8
:100EB000BB278A2ADA01B695BA2FAA27B795A79534
:100EC0008A2ADB0114E0AA0FBB1F1A95E1F7A07173
:100ED000BB278A2AD70115E0AA0FBB1F1A95E1F795
:100EE000A072BB278A2AE095F095E023E1708E2A54
:100EF000609570956C217D2103E0660F771F0A9540
:100F0000E1F768707727862A40955095E422F5220C
:100F100046E0EE0CFF1C4A95E1F7E0E4EE22FF24E8
:100F20008E288886890155E0159507955A95E1F731
:100F3000BC01E5E075956795EA95E1F7D901F6E022
:100F4000B595A795FA95E1F7AC01E6E0559547957B
:100F5000EA95E1F7220F232F221F330B6C01CC0CF3
:100F6000CD2CCC1CDD08C901E6E0880F991FEA955D
:100F7000E1F7E02FE170FE2EF82AFB01EE0FFF1FD4
:100F8000EE0FFF1FE470FF27FE2AFD0193E0EE0F36
:100F9000FF1F9A95E1F7E870FF27FE2AFA0185E026
:100FA000EE0FFF1F8A95E1F7E072FF27FE2AF60198
:100FB00081E0E827E223F323F695FE2FEE27F7954D
:100FC000E795EF296095709560237123660F771F71
:100FD00062707727E62B40955095A423B52334E023
:100FE000AA0FBB1F3A95E1F7A071BB27AE2BA987CB
:100FF000F091B7012F2F30E09091B301492F50E0CD
:10100000E09171016E2F70E0F0FBAA24A0F8B12CE2
:10101000AA0CBB1C90FB442440F8512C440C551CDA
:10102000440C551CA4288C2D8A29E0FB222420F88E
:10103000312CB3E0220C331CBA95E1F7282A590170
:10104000B594A794B594A794B694BA2CAA24B7944F
:10105000A7942A28590183E0AA0CBB1C8A95E1F7C2
:10106000A0E1AA22BB242A285A01E4E0AA0CBB1C56
:10107000EA95E1F7E0E2AE22BB242A28FB01A5E0D5
:10108000EE0FFF1FAA95E1F7E074FF272E2A2A86AC
:10109000FB01B4E0F595E795BA95E1F7F695FE2FDB
:1010A000EE27F795E79592FB882780F98E2B9870AD
:1010B000892BFB01F695E795E270FF278E2BF9014E
:1010C000F695E795E470FF278E2B660F771F60710A
:1010D0007727862B220F331F20723327822B440F52
:1010E000551F440F551F40745527842B8B87F09153
:1010F00041026F2F70E080918902282F30E0E0914B
:10110000ED014E2F50E081708E871F868E859F8562
:10111000880F991FAE2FA170A88B198AA889B98949
:10112000AA0FBB1FAA0FBB1F8A2B9F2F9170892B61
:10113000D901B595A795B595A795B695BA2FAA27C4
:10114000B795A7958A2BDB01AA0FBB1FAA0FBB1F60
:10115000A870BB278A2BD90103E0AA0FBB1F0A95F1
:10116000E1F7A071BB278A2BDA0194E0AA0FBB1F1D
:101170009A95E1F7A072BB278A2BDB0114E0AA0F36
:10118000BB1F1A95E1F7A074BB278A2B8C87E870E8
:10119000F071EF2B42FB882780F98E2B76956795AF
:1011A0007695679562707727682BC9019695879524
:1011B00084709927682B220F331F20723327262B28
:1011C000440F551F440F551F40745527422B4D8720
:1011D0004DE050E0BE016F5F7F4F89EA92E00E94D0
:1011E000F60280E061960FB6F894DEBF0FBECDBF69
:1011F000DF91CF911F910F91FF90EF90DF90CF90F3
:10120000BF90AF909F908F907F906F905F904F9026
:101210003F902F90089588E690E08DCC0F931F9318
:101220002091ED0130E0082E02C0359527950A94F3
:10123000E2F744E0849FC001112420FF16C08251D0
:101240009E4FFC0160817181828193810091E80150
:101250001091E9012091EA013091EB01601B710BC3
:10126000820B930B1F910F9108958F5D9D4FFC0191
:101270006081718182819381F5CF0F931F932091BB
:10128000890230E0082E02C0359527950A94E2F7CE
:1012900044E0849FC001112420FF16C082519E4F5C
:1012A000FC0160817181828193810091E80110913C
:1012B000E9012091EA013091EB01601B710B820B77
:1012C000930B1F910F9108958F5C9D4FFC016081DE
:1012D000718182819381F5CF0F931F9320917101CA
:1012E00030E0082E02C0359527950A94E2F744E0D5
:1012F000849FC001112420FF16C08E579E4FFC0111
:1013000060817181828193810091E8011091E901EE
:101310002091EA013091EB01601B710B820B930B62
:101320001F910F9108958E589E4FFC01608171812D
:1013300082819381F5CF0F931F932091B30130E009
:10134000082E02C0359527950A94E2F744E0849F61
:10135000C001112420FF16C08E579E4FFC016081F2
:101360007181828193810091E8011091E9012091BE
:10137000EA013091EB01601B710B820B930B1F9103
:101380000F9108958E569E4FFC016081718182817C
:101390009381F5CF0F931F93E82F2091900230E0B7
:1013A000082E02C0359527950A94E2F720953095CE
:1013B00040918F0250E002C0559547958A95E2F71B
:1013C000242384E0E89FA001112420FF28C042507C
:1013D0005E4FDA016D917D918D919C9122E030E01C
:1013E00002C035952795EA95E2F720FF0FC00091DE
:1013F000DB011091DC012091DD013091DE01601BE9
:10140000710B820B930B1F910F9108950091E801CE
:101410001091E9012091EA013091EB01F0CF4E5B90
:101420005D4FFA016081718182819381ECCF4F928F
:101430005F926F927F928F929F92AF92BF92CF9264
:10144000DF92EF92FF92CF93DF93CDB7DEB7C05913
:10145000D1090FB6F894DEBF0FBECDBF80916D03EA
:10146000823009F4A2C030F4882361F0813079F031
:1014700081E085C0833009F42FC18430C9F780E74B
:1014800090E002C083E790E00E94EA0477C087E022
:101490000E94CA0965966CAF7DAF8EAF9FAF65970E
:1014A00086E00E94CA0969966CAF7DAF8EAF9FAF90
:1014B000699785E00E94CA096D966CAF7DAF8EAFCB
:1014C0009FAF6D9784E00E94CA09A1966CAF7DAF73
:1014D0008EAF9FAFA19783E00E94CA096B017C0188
:1014E00082E00E94CA094B015C0181E00E94CA09A6
:1014F0002B013C0180E00E94CA0969837A838B83B7
:101500009C834D825E826F82788689869A86AB86BE
:10151000BC86CD86DE86EF86F88AA1968CAD9DAD21
:10152000AEADBFADA197898B9A8BAB8BBC8B6D9603
:101530008CAD9DADAEADBFAD6D978D8B9E8BAF8BE2
:10154000B88F69968CAD9DADAEADBFAD6997898FF3
:101550009A8FAB8FBC8F65968CAD9DADAEADBFAD98
:1015600065978D8F9E8FAF8FB8A340E250E0BE018C
:101570006F5F7F4F89EA92E00E94F60280E0C057D9
:10158000DF4F0FB6F894DEBF0FBECDBFDF91CF9116
:10159000FF90EF90DF90CF90BF90AF909F908F9093
:1015A0007F906F905F904F90089584E00E946C0947
:1015B00065966CAF7DAF8EAF9FAF659784E00E945C
:1015C0009B0969966CAF7DAF8EAF9FAF699783E043
:1015D0000E946C096D966CAF7DAF8EAF9FAF6D971B
:1015E00083E00E949B09A1966CAF7DAF8EAF9FAF49
:1015F000A19782E00E946C09A5966CAF7DAF8EAF7B
:101600009FAFA59782E00E949B09A9966CAF7DAF22
:101610008EAF9FAFA99781E00E946C096B017C019E
:1016200081E00E949B094B015C0180E00E946C09F3
:101630002B013C0180E00E949B0969837A838B83A4
:101640009C834D825E826F82788689869A86AB867D
:10165000BC86CD86DE86EF86F88AA9968CAD9DADD8
:10166000AEADBFADA997898B9A8BAB8BBC8BA59682
:101670008CAD9DADAEADBFADA5978D8B9E8BAF8B69
:10168000B88FA1968CAD9DADAEADBFADA197898F42
:101690009A8FAB8FBC8F6D968CAD9DADAEADBFAD4F
:1016A0006D978D8F9E8FAF8FB8A369968CAD9DADD2
:1016B000AEADBFAD699789A39AA3ABA3BCA3659652
:1016C0008CAD9DADAEADBFAD65978DA39EA3AFA311
:1016D000B8A748E250E04BCF8091890290918A02EE
:1016E000A0918B02B0918C0265968CAF9DAFAEAF8E
:1016F000BFAF65978091790290917A02A0917B02A9
:10170000B0917C0269968CAF9DAFAEAFBFAF6997C9
:1017100084E00E940E096D966CAF7DAF8EAF9FAFD7
:101720006D9784E00E943D09A1966CAF7DAF8EAFAE
:101730009FAFA1978091850290918602A091870228
:10174000B0918802A5968CAF9DAFAEAFBFAFA59705
:101750008091750290917602A0917702B091780203
:10176000A9968CAF9DAFAEAFBFAFA99783E00E94A3
:101770000E09AD966CAF7DAF8EAF9FAFAD9783E096
:101780000E943D09E1966CAF7DAF8EAF9FAFE197B0
:101790008091810290918202A0918302B091840293
:1017A000E5968CAF9DAFAEAFBFAFE597809171026C
:1017B00090917202A0917302B0917402E9968CAF7D
:1017C0009DAFAEAFBFAFE99782E00E940E09ED96E4
:1017D0006CAF7DAF8EAF9FAFED9782E00E943D0969
:1017E000C358DF4F688379838A839B83CD57D0406A
:1017F00080917D0290917E02A0917F02B091800243
:10180000CF57DF4F88839983AA83BB83C158D040C9
:1018100080916D0290916E02A0916F02B091700262
:10182000CB57DF4F88839983AA83BB83C558D040A9
:1018300081E00E940E096B017C0181E00E943D095C
:101840004B015C018091790290917A02A0917B0218
:10185000B0917C02C757DF4F88839983AA83BB83EB
:10186000C958D0408091690290916A02A0916B02A0
:10187000B0916C02C357DF4F88839983AA83BB83DF
:10188000CD58D04080E00E940E092B013C0180E041
:101890000E943D0969837A838B839C834D825E829B
:1018A0006F827886C357DF4F88819981AA81BB8177
:1018B000CD58D04089879A87AB87BC87C757DF4F01
:1018C00088819981AA81BB81C958D0408D879E8724
:1018D000AF87B88B898A9A8AAB8ABC8ACD8ADE8A1E
:1018E000EF8AF88ECB57DF4F88819981AA81BB811F
:1018F000C558D040898F9A8FAB8FBC8FCF57DF4FA1
:1019000088819981AA81BB81C158D0408D8F9E8FDB
:10191000AF8FB8A3C358DF4F88819981AA81BB815B
:10192000CD57D04089A39AA3ABA3BCA3ED968CADB1
:101930009DADAEADBFADED978DA39EA3AFA3B8A7F0
:10194000E9968CAD9DADAEADBFADE99789A79AA7DD
:10195000ABA7BCA7E5968CAD9DADAEADBFADE59791
:101960008DA79EA7AFA7B8ABE1968CAD9DADAEADF0
:10197000BFADE19789AB9AABABABBCABAD968CADD1
:101980009DADAEADBFADAD978DAB9EABAFABB8AFC0
:10199000A9968CAD9DADAEADBFADA99789AF9AAFFD
:1019A000ABAFBCAFA5968CAD9DADAEADBFADA597B1
:1019B00021968CAF9DAFAEAFBFAF2197A1968CADF6
:1019C0009DADAEADBFADA19725968CAF9DAFAEAF2F
:1019D000BFAF25976D968CAD9DADAEADBFAD6D978C
:1019E00029968CAF9DAFAEAFBFAF299769968CADEE
:1019F0009DADAEADBFAD69972D968CAF9DAFAEAF2F
:101A0000BFAF2D9765968CAD9DADAEADBFAD659763
:101A100061968CAF9DAFAEAFBFAF619740E550E030
:101A2000A6CD08958F929F92AF92BF920F931F936E
:101A3000CF93DF93CDB7DEB7A1970FB6F894DEBF93
:101A40000FBECDBF19A2423008F44AE08E010F5DEF
:101A50001F4F842E912CB12CA12CA50194010E9422
:101A6000AE1BE62FB901CA01EA3044F5E05DD801AA
:101A7000EE938D01232B242B252B79F790E080E02A
:101A8000109769F0FD0101900020E9F73197AF014F
:101A90004A1B5B0BBD0189EA92E00E94F602A19607
:101AA0000FB6F894DEBF0FBECDBFDF91CF911F916F
:101AB0000F91BF90AF909F908F900895E95CD7CF22
:101AC000E0916D03EE3008F059C0F0E0E659F24FB6
:101AD0000C94D01B780D7C0D980D9D0DA00DA30DC1
:101AE000A60DA90DAC0DAF0DB20DB50DB80DBB0D0A
:101AF0000E94EC0480E0089585E990E00E94E303F1
:101B000042E050E063E371E089EA92E00E94F6026D
:101B100085EA90E00E94E303609168037091690395
:101B200080916A0390916B034AE00E94120DE2CF0C
:101B30008EEA90E00E94EA04DDCF88EC90E0FACFD4
:101B40008DED90E0F7CF85EF90E0F4CF88E091E065
:101B5000F1CF8EE191E0EECF8FE291E0EBCF8BE41D
:101B600091E0E8CF8CE591E0E5CF88E791E0E2CF26
:101B700083E991E0DFCF85EB91E0DCCF81E0089550
:101B80001F920F920FB60F9211242F933F938F93B2
:101B90009F93AF93BF938091A1029091A202A091D5
:101BA000A302B091A4023091A00223E0230F2D37AD
:101BB00058F50196A11DB11D2093A0028093A102AA
:101BC0009093A202A093A302B093A4028091A502D5
:101BD0009091A602A091A702B091A8020196A11D22
:101BE000B11D8093A5029093A602A093A702B09383
:101BF000A802BF91AF919F918F913F912F910F902C
:101C00000FBE0F901F90189526E8230F0296A11D76
:101C1000B11DD2CF1F920F920FB60F9211242F93A6
:101C20003F934F935F936F937F938F939F93AF9364
:101C3000BF93EF93FF93E0910201F09103010995A7
:101C4000FF91EF91BF91AF919F918F917F916F9194
:101C50005F914F913F912F910F900FBE0F901F906A
:101C600018951F920F920FB60F9211242F933F9346
:101C70004F935F936F937F938F939F93AF93BF9394
:101C8000EF93FF93E0910001F09101010995FF911D
:101C9000EF91BF91AF919F918F917F916F915F91E4
:101CA0004F913F912F910F900FBE0F901F9018955D
:101CB0001F920F920FB60F9211242F933F934F93C1
:101CC0005F936F937F938F939F93AF93BF93EF93A4
:101CD000FF9389EA92E00E947403FF91EF91BF9114
:101CE000AF919F918F917F916F915F914F913F91B4
:101CF0002F910F900FBE0F901F9018951F920F926B
:101D00000FB60F9211242F938F939F93EF93FF930E
:101D1000E091B902F091BA028081E091BF02F091A6
:101D2000C00282FD1BC090818091C2028F5F8F73C1
:101D30002091C302821741F0E091C202F0E0E75522
:101D4000FD4F958F8093C202FF91EF919F918F91EC
:101D50002F910F900FBE0F901F9018958081F4CF98
:101D6000E9EAF2E01382128288EE93E0A0E0B0E0AC
:101D700084839583A683B78385E291E091838083F2
:101D800085EC90E09587848784EC90E09787868740
:101D900080EC90E0918B808B81EC90E0938B828B38
:101DA00082EC90E0958B848B86EC90E0978B868B11
:101DB000118E128E138E148EE6E4F3E081E2DF01C1
:101DC0001D928A95E9F711A280E895E2A0E0B0E0C3
:101DD00082A393A3A4A3B5A316A217A2EEE6F3E0F1
:101DE00080E2DF011D928A95E9F710928E0310922E
:101DF0008F0310929003109292031092910380E847
:101E0000E3E9F3E0DF01982F1D929A95E9F710922C
:101E100013048093140480E1E5E1F4E0DF01982FDE
:101E20001D929A95E9F7E5E2F4E0DF011D928A95AB
:101E3000E9F7109235041092360410923704E8E363
:101E4000F4E01082118212821382148215821682AB
:101E50001782109240041092410410924204089597
:101E6000CF93DF93CDB7DEB760970FB6F894DEBFA0
:101E70000FBECDBF789484B5826084BD84B5816087
:101E800084BD85B5826085BD85B5816085BD809145
:101E90006E00816080936E001092810080918100BD
:101EA00082608093810080918100816080938100B5
:101EB000809180008160809380008091B100846077
:101EC0008093B1008091B00081608093B0008091D8
:101ED0007A00846080937A0080917A008260809397
:101EE0007A0080917A00816080937A0080917A00F4
:101EF000806880937A001092C10060E072EC81E00B
:101F000090E00E941E0454985C9A55985D9A5698E9
:101F10005E9A57985F9A2098289A2198299A229831
:101F20002A9A2398249825982D9A3898409A259A89
:101F3000389A399A3A9A3B9A3C9A3D9A3E9A62E08C
:101F400082E00E944F0285EA92E090930101809323
:101F50000001809169008C7F816080936900E89A1C
:101F600062E083E00E944F028DEC92E090930301C7
:101F70008093020180916900837F8460809369006F
:101F8000E99A80914D0190914E019C01235F3F4F52
:101F90003093500120934F014596909352018093C6
:101FA00051018091410283FD28C082E390E0A0E0CE
:101FB000B0E080933D0290933E02A0933F02B09325
:101FC000400280932D0290932E02A0932F02B09393
:101FD000300281E090E0A0E0B0E080937502909341
:101FE0007602A0937702B093780210928502109245
:101FF0008602109287021092880280916F01886099
:1020000080936F0185E192E00E94EA0480E69DE002
:102010000E94A5010E9480026093990270939A0227
:1020200080939B0290939C022FB7F8948091A10219
:102030009091A202A091A302B091A4022FBF80931D
:10204000E8019093E901A093EA01B093EB0120919C
:10205000E001211106C08093DF01442443944092A3
:10206000E0012091DF01182F121B8093DF010E94F5
:1020700080026093DB017093DC018093DD0190931B
:10208000DE014091D9015091DA011092DA011092EB
:10209000D90160919702709198024C9907C066240B
:1020A0006394712C7092DA016092D9014D9B09C042
:1020B0008091D9019091DA0182609093DA01809346
:1020C000D9014E9B09C08091D9019091DA018460B9
:1020D0009093DA018093D9014F9B09C08091D90177
:1020E0009091DA0188609093DA018093D901189970
:1020F00009C08091D9019091DA0180619093DA0151
:102100008093D901199909C08091D9019091DA0180
:1021100080629093DA018093D9011A9909C0809165
:10212000D9019091DA0180649093DA018093D9010A
:102130001B9B09C08091D9019091DA01806890932E
:10214000DA018093D9011C9B09C08091D90190913B
:10215000DA0191609093DA018093D9011D9909C049
:102160008091D9019091DA0192609093DA01809385
:10217000D901309B09C08091D9019091DA01946016
:102180009093DA018093D901C090D901D090DA01FF
:10219000DE82CD824C255D258091D7019091D801BA
:1021A000842B952BADECB1E030E020E0022FFA015A
:1021B000022E02C0F695E7950A94E2F7E0FF05C00B
:1021C000F901E358FD4FE491EC93FC01002E02C0AD
:1021D000F695E7950A94E2F7E0FF10C0EC911E1720
:1021E00008F424C1E1E0F0E002C0EE0FFF1F0A9501
:1021F000E2F7E095F0958E239F231C922F5F3F4FCF
:1022000011962B30310591F69093D8018093D70128
:102210002D813E812627372782239323ED80FE8060
:10222000E826F926F0929802E0929702CB01809579
:1022300090958E219F219093940280939302E09435
:10224000F0946E217F2170938E0260938D029091A5
:1022500091028091CC01809589232091CB01822726
:102260009093CC0190919502909520919202322FFB
:10227000392330939202822B98239093CB01809143
:102280009F02982B90939F0290FFD3C02D9A80912C
:102290009F0281FFD0C0409A80919F0282FFCDC0F3
:1022A000419A80919F0283FFCAC0429A80919F0207
:1022B00084FFC7C0439A80919F0285FFC4C0449A9F
:1022C00080919F0286FFC1C0459A80919F0290E055
:1022D000880F892F881F990B892B09F4B8C0469A5B
:1022E00080919F028093960210929F021092950215
:1022F00010929102A0915F01B0E0FD01E95FFE4FF5
:1023000080818E3008F08E508770806480937C00CE
:1023100080917A00806480937A0080917A0086FDB3
:10232000FCCF8091780090917900AD01440F551F4A
:10233000FA01E75AFE4F20813181B901660F771FFC
:10234000260F371F280F391F369527953695279565
:1023500031832083FA01ED5AFE4F40815181841B65
:10236000950B9695879596958795840F951F9183E4
:10237000808300915F01402F50E0A65BBE4F1C910F
:10238000FA01EE0FFF1FE35BFE4F80819181810F09
:10239000911DFC01EE0FFF1FEF5AFD4F65917491E7
:1023A0007E836D83FC01EE0FFF1FE15EFD4F6591A3
:1023B00074914C5F5E4FFA0180818150181708F0CC
:1023C00048C04D805E802415350508F442C01F5F6B
:1023D0001C93033008F046C00F5F00935F018091AB
:1023E000630190E0FC01E05AFE4F2081DC01A25F16
:1023F000BE4F3C912317C8F5DC01A25FBE4F3C9154
:10240000230F20830081602E712C7E826D82865F77
:102410009E4FDC011C9161E0812F0E944F026728D2
:1024200061F560E0812F0E9403025AC0E11BEC932A
:10243000E5CE2D982CCF40982FCF419832CF42989F
:1024400035CF439838CF44983BCF45983ECF4698F8
:1024500047CF112309F4BDCF6217730708F4B9CF32
:102460001150B6CF10925F01BACF321758F6DC0187
:10247000A25FBE4F3C91231BC4CFED81FE81EF3F95
:10248000F10511F461E0CECFE12FF0E0E152FD4F14
:10249000E491E33009F4E5C158F4E130E9F0E230C9
:1024A00009F4DAC12D813E81203831055CF7B9CFBE
:1024B000E73009F4E2C1E83009F4E7C1E43091F70C
:1024C000809180008062809380006D807E80709219
:1024D0008B0060928A0004C084B5806884BD07BD0B
:1024E00080916301843008F0D8C18F5F80936301CD
:1024F0009091C9018091CA01809589232091C801DA
:1025000082279093CA019091C70190952091C601AE
:10251000322F39233093C601822B98239093C80120
:102520002091C501922B9093C4011092C701109283
:10253000C5011092C90190918B02909580915E0225
:10254000892380935E0220915F02922390935F0221
:1025500070919002282F2723209580911A02982BA2
:10256000292360918F026095622320938F0210923D
:102570001A0210928B028091E8019091E901A091DA
:10258000EA01B091EB011091DB010091DC01D090E8
:10259000DD01C090DE014EEF51E05C874B87E2E445
:1025A000F2E0FA87E98750E040E030E0422E512C1B
:1025B0005E824D82662E712C78866F82272E312C9A
:1025C000642FED80FE80042E02C0F594E7940A94F7
:1025D000E2F7E0FE59C0EF80F884042E02C0F594C3
:1025E000E7940A94E2F7E0FE21C0F2E0EF2EF12C2E
:1025F000042E02C0F594E7940A94E2F74C015D01C1
:10260000E0FE04C0812E902EAD2CBC2CE985FA850D
:102610004080518062807380840C951CA61CB71C7E
:10262000EB85FC8580829182A282B3827101062EA5
:1026300002C0F594E7940A94E2F7E0FC25C0E2E0DA
:10264000EE2EF12C062E02C0F594E7940A94E2F7E0
:102650004C015D01E0FE04C0812E902EAD2CBC2CFF
:10266000EB85FC85408051806280738084189508DA
:10267000A608B708B7FC08C0EE24E394F12C01C00B
:10268000EE0C6A95EAF73E294F5F5F4FEB85FC85BC
:102690003496FC87EB87E985FA853496FA87E987D3
:1026A0004830510509F08CCF30938C02372B23230F
:1026B000209390022091C30120953091C2012323E1
:1026C0002093C20130911F02232B4091C1015091F0
:1026D0008A02322F30953523409543234093C00121
:1026E000252B10921F021092C3010BEB11E01A87E9
:1026F000098770E060E0312C50E0B62E032F10E027
:10270000062E02C0159507950A94E2F700FF3BC01C
:102710008A01062E02C0159507950A94E2F700FF7C
:1027200016C08B01000F111F000F111F055E1D4FFA
:10273000F801C080D180E280F380C80ED91EEA1E65
:10274000FB1EE985FA85C082D182E282F38201E034
:1027500010E002C0000F111FBA94E2F77801E09474
:10276000F094E985FA8580809180A280B3802C0165
:102770003D01481859086A087B0853014201B7FE19
:102780002E213E21302A09851A850C5F1F4F1A879A
:1027900009876130710509F083C020938A02309364
:1027A000C1013092BF012090BA0120942091B9015B
:1027B00022222092B9012091B801222AD090B7019B
:1027C0002D2D20952221722D7095D722D986209209
:1027D000B7011092B8011092BA013091B301322BB7
:1027E00042EA51E05E834D8302E911E062E871E064
:1027F00078876F8350E040E060E070E0312C822EFB
:10280000912CA32EB12C4B877101042E02C0F5949C
:10281000E7940A94E2F7E0FE85C07401042E02C03A
:10282000F594E7940A94E2F7E0FE3DC0ED81FE8165
:102830001082118212821382F801408051806280DE
:102840007380480E591E6A1E7B1EEF81F8854082F8
:1028500051826282738266C084B5806284BD08BD85
:102860003FCE809180008068809380004D805E80A4
:10287000509289004092880033CE8091B0008068E9
:102880008093B0000093B3002BCE8091B0008062A3
:102890008093B0000093B40023CE1092630128CE41
:1028A00061E070E02ACFEF81F8854080518062803E
:1028B00073806C017D01C418D508E608F708CD8641
:1028C000DE86EF86F88A75010B8402C0F594E794E2
:1028D0000A94E2F74D845E846F847888E0FE0CC130
:1028E00077FC20C07A01EE0CFF1CEE0CFF1CF701F8
:1028F000EE58FE4F4080518062807380480E591E12
:102900006A1E7B1EEF81F88540825182628273824B
:10291000EE24E394F12C0B8402C0EE0CFF1C0A940D
:10292000E2F76E294F5F5F4FED81FE813496FE83A3
:10293000ED830C5F1F4FEF81F8853496F887EF83A6
:102940004530510509F05FCF2093B2016093B50186
:102950004985462B4093B4014095232B2423209393
:10296000B30120917101622BF9857F2B7093B60121
:10297000709567236093710140907001409420919D
:102980006F01422240926F0120912002E42DE22B40
:1029900030914102232F20952E234E2F4095342332
:1029A000E093410210926B0110922002109270018C
:1029B000C0908902C22A50E040E01A86198670E071
:1029C000D12C60E06E2E712C7E826D82222E312CF5
:1029D000F984ED81FE810F2C02C0F595E7950A94EC
:1029E000E2F7E0FF30C08A0102511E4F18870F83C3
:1029F00081010F2C02C0159507950A94E2F700FF9C
:102A0000A5C08A0107591D4FF80110821182128258
:102A100013828A0107581D4FF80110821182128219
:102A200013828A010F5C1D4FF80180809180A28083
:102A3000B380880E991EAA1EBB1EEF81F885808286
:102A40009182A282B38209851A850F5F1F4F1A8770
:102A500009874C5F5F4F0530110509F0B9CF6093CE
:102A60006E01D0926D012093EC0130936A01832FA7
:102A700080952C292823209389029091ED01372BF2
:102A800030936C01309593239093ED0190916901FF
:102A9000692B862380936901109268011092670167
:102AA0001092660110926501109264018091670393
:102AB000882321F010926C031092670389EA92E058
:102AC0000E945403892B09F4CBC0809167038111C4
:102AD000C7C089EA92E00E943203E0916C038A3019
:102AE00019F08D3009F0B0C0F0E0EA5BFC4F1082C5
:102AF00011E010936703E2CF77FC14CFF801408018
:102B0000518062807380480E591E6A1E7B1EEF81C1
:102B1000F8854082518262827382EE24E394F12C24
:102B20000B8402C0EE0CFF1C0A94E2F72E297E29CA
:102B3000ED81FE814080518062807380FFEF4F1AEB
:102B40005F0A6F0A7F0AED81FE8181CEEF81F885F1
:102B500080809180A280B3802C013D0148185908E3
:102B60006A087B0853014201B7FC6DCF8A010F5CF4
:102B70001D4FF80180809180A280B380880E991E3D
:102B8000AA1EBB1EEF81F88580829182A282B38249
:102B900044244394512C02C0440C551CFA94E2F78F
:102BA00058864F8224295F8075298A0107591D4F55
:102BB000F80180809180A280B380FFEF8F1A9F0A76
:102BC000AF0ABF0AF80180829182A282B382FA0121
:102BD000EF5EFE4F4080518062807380481459043C
:102BE0006A047B0408F02FCFF80110821182128250
:102BF0001382FF81DF2A8A010F5E1E4FF801408099
:102C0000518062807380411451046104710409F49D
:102C10001ACF8A0107581D4FF80180809180A28049
:102C2000B380FFEF8F1A9F0AAF0ABF0AF8018082B4
:102C30009182A282B382481459046A047B0408F08A
:102C400002CFFF816F2BFFCEE03208F037CF91E04B
:102C50009E0F90936C03F0E0EA5BFC4F80832ECFD5
:102C600080914204882309F468C089EA92E00E94B6
:102C70002303CF970CF461C00091400420913804E5
:102C80003091390440913A0450913B0460913C04E6
:102C900070913D0480913E0490913F040E94F11B8D
:102CA000217030E040E050E060E070E080E090E0D3
:102CB000A0E00E940C1C09F406C28091910390913F
:102CC00092030097D1F420919003222391F08091F8
:102CD0008F0391E0980F9F7090938F032150209362
:102CE0009003E82FF0E0EE0FFF1FEA5BFC4F80A59A
:102CF00091A59093920380939103E0919103F091B9
:102D000092033097D1F00995882391F010929203A5
:102D10001092910310926D03809140048F5F8F7326
:102D2000809340048091420481508093420405C006
:102D300080916D038F5F80936D038091EC0183FF21
:102D400012C08091750290917602A0917702B091A5
:102D500078020097A105B10509F4FAC10197A10510
:102D6000B10509F4FAC180916703882309F4BEC054
:102D70008CEE94E00E94A50180914204803408F01A
:102D8000A8C0A6E4B3E00D900020E9F7CD01875478
:102D90009340DD24D394D80EBFE3BD1508F499C049
:102DA00080913704803108F094C0809114048D150F
:102DB00008F48FC0809113040D2D10E090E060E8BE
:102DC000E62EF12CE81AF90A0E151F050CF478010D
:102DD000F701FF27FE83ED83AF0166E473E08D56B4
:102DE0009C4F0E94181CED1460F4A8014D805E8079
:102DF00044195509B2016A5B7C4F83E993E00E9454
:102E0000181C80913604282F30E0909113042D5621
:102E10003C4FF901EE57FF4F90832E563F4FD9019B
:102E2000DC929D0D9F7790931304909114049D194B
:102E3000909314048F5F8F708093360480913704D1
:102E40008F5F80933704E091410421E030E040E05F
:102E500050E060E070E080E090E00E2F0E94D61B12
:102E600020953095409550956095709580959095FA
:102E7000F09138042F232093380420913904322311
:102E80003093390420913A04422340933A0420912C
:102E90003B04522350933B0420913C0462236093F3
:102EA0003C0420913D04722370933D0420913E0424
:102EB000822380933E0480913F04982390933F04A3
:102EC000EF5FEF73E0934104809142048F5F809342
:102ED000420466E371E086E493E00E94211C892BA2
:102EE00009F03EC180E69DE00E94A5014090970256
:102EF000509098025E824D82C201969587958C0112
:102F000001701127920153E0369527955A95E1F704
:102F1000A9014170552760919F02822B80FFA0C1BB
:102F2000626060939F02452B09F0CCC30115110527
:102F300021F48091960282FF05C080919F028460F7
:102F400080939F028091930281FB552450F859820F
:102F50001A8281FF0AC08091920288608093920257
:102F60008091910280618093910220918F02322F93
:102F70003170E32E20FF20C08091FE019091FF016F
:102F8000A0910002B091010288519C4FAF4FBF4FFA
:102F90004091420250914302609144027091450277
:102FA000841B950BA60BB70B8093FE019093FF013A
:102FB000A0930002B093010248EE53E060E070E09D
:102FC000409342025093430260934402709345023F
:102FD00080919002F82EF09480FD7EC349805A8043
:102FE000452809F03FC1E1103DC18F2D822380FDAE
:102FF00048C180918D02F2222F2D2170F22E81FB8B
:10300000332730F93B831C8281FD02C02223C1F0AB
:1030100080919F02826080939F0280911A0281605A
:1030200080931A024B805C80452851F08091920277
:1030300082608093920280915F02816080935F0240
:1030400080918C02282F2170D22E80FF05C08091A4
:103050008B02816080938B0280918A0281700115BE
:10306000110509F019C1811161C180918902282FD0
:103070002170C22E80FF2CC38091790290917A0238
:10308000A0917B02B0917C020097A105B10509F4E3
:1030900057C10197A105B10509F4C6C1012B09F07B
:1030A00084C1809169024091790250917A026091C5
:1030B0007B0270917C02452B462B472B09F0E6C121
:1030C0000E9454057DC180913704882309F435CED0
:1030D0008091350490E08D569C4FFC01EE57FF4FD8
:1030E00060818E569F4FDC01DC904D2C512C5E820E
:1030F0004D8270E000E810E0061B170B40165106E9
:103100000CF482017801FF246D567C4FA70189EAF7
:1031100092E00E94F6020D1550F44D815E814E1929
:103120005F0963E973E089EA92E00E94F602809108
:103130001404D80ED0921404809135048F5F8F70E0
:103140008093350480913704815080933704E4CD17
:1031500085E795E00E94A50106CE87E19AE0FACFC7
:1031600068E371E086E493E00E94211C892B19F446
:1031700082EF94E0B9CE6DE371E086E493E00E94C3
:10318000211C892B19F48EEF94E0AECE42E050E082
:1031900062E471E086E493E00E942A1C892B09F026
:1031A000A5CE88E493E00E94721BAB01BC01809124
:1031B000890283FF20C08091FA019091FB01A091C8
:1031C000FC01B091FD0100913D0210913E02209161
:1031D0003F0230914002801B910BA20BB30B840F76
:1031E000951FA61FB71F8093FA019093FB01A09330
:1031F000FC01B093FD0140933D0250933E02609369
:103200003F02709340028091ED0183FF20C08091C6
:10321000FA019091FB01A091FC01B091FD01009198
:103220002D0210912E0220912F0230913002801B2E
:10323000910BA20BB30B840F951FA61FB71F809392
:10324000FA019093FB01A093FC01B093FD01409320
:103250002D0250932E0260932F027093300246CEBF
:1032600064605FCE80919F02826080939F02809114
:103270001A02816080931A0269807A80672809F4B3
:10328000B4CE80919F02826080939F0280911A0247
:10329000816080931A02ADCE90911F02916090934D
:1032A0001F02811143C048EE53E060E070E040939C
:1032B0001B0250931C0260931D0270931E028091AA
:1032C000410280FD2DC068E572E080E090E06093EF
:1032D000310270933202809333029093340281E082
:1032E00090E0A0E0B0E08093210290932202A093AE
:1032F0002302B093240234E0432E512C612C712C14
:103300004092690250926A0260926B0270926C0263
:103310008093790290937A02A0937B02B0937C020F
:10332000809120028160809320029FCE80919F0235
:10333000826080939F020115110509F496CEBFCFDC
:103340008091690290916A02A0916B02B0916C0227
:1033500082309105A105B10509F45EC068F40097BB
:10336000A105B105C1F00197A105B10509F096CEFF
:1033700080919F028A6012C083309105A105B1053A
:1033800009F44EC00497A105B10509F087CE8091DC
:103390009F028F6103C080919F02856080939F028E
:1033A00080916902012B09F48BCE8091410280FF4C
:1033B00078C080912002816080932002C11071CE7C
:1033C00069807A80672809F49DC080915F028160DE
:1033D00080935F0280915E02816080935E02E110C3
:1033E0000CC008E512E020E030E0009342021093A8
:1033F00043022093440230934502809192028260FE
:10340000809392021092680211E010936702DD200F
:1034100009F47AC080E0A7C080919F028461BECF8A
:1034200080919F028E60BACF8091690290916A026A
:10343000A0916B02B0916C0282309105A105B1059B
:1034400041F168F40097A105B105B1F00197A1051C
:10345000B10509F023CE80919F02826010C08330B5
:103460009105A105B105C9F00497A105B10509F0C1
:1034700015CE0E942D0512CE80919F02816080930F
:103480009F0280916902012B09F08FCF0E940A05EB
:1034900097CF80919F028460F2CF80919F028860D5
:1034A000EECF48E552E060E070E040933102509387
:1034B0003202609333027093340261E070E080E086
:1034C00090E06093210270932202809323029093F4
:1034D000240284E090E0A0E0B0E080936902909341
:1034E0006A02A0936B02B0936C02412C512C320102
:1034F00043944092790250927A0260927B027092D9
:103500007C0257CFD1102BC0F11044C04B805C809F
:10351000452851F080918B02816080938B028091CD
:1035200095028260809395028E8181706D807E808D
:10353000660C672C661C770871947E826D820D8103
:1035400001700D8390916202911130C0009361026D
:103550008093600211E01093620280E033C080919A
:103560006802853020F48F5F80936802CDCF10927F
:10357000680280916702823020F48F5F8093670237
:10358000C3CF10926702FF2009F2809168020E9467
:103590000A05BCCF809167028823B9F3813009F016
:1035A000B5CF809168020E945405B0CF909161021E
:1035B0002D81291709F479C020936102821709F43B
:1035C0007FC08FEF41E050E060E070E0811103C008
:1035D00040E050E0BA018091630290916402A091B2
:1035E0006502B0916602840F951FA61FB71F8093D6
:1035F000630290936402A0936502B093660287E031
:1036000080939F0240919D0250919E024F5F5F4FB9
:103610005E834D8350939E0240939D02493E5340EA
:1036200090F10E9480020091990210919A022091DB
:103630009B0230919C02601B710B820B930B4D809F
:103640005E80920150E040E00E94AE1B69017A0169
:1036500088E892E00E94E3034AE0C701B6010E94B5
:10366000120D8BE992E00E94EA0410929E021092E1
:103670009D020E9480026093990270939A02809347
:103680009B0290939C0280E0682E80E0782E672851
:1036900011F40C9414100E946003882311F40C940C
:1036A00014100E9400000C9414109091600289176D
:1036B00009F453CF809360023D81831709F481CFD1
:1036C00081E080CF809195028861809395023ACC09
:1036D000012B09F475CE69CEC980DA80CD2809F4B2
:1036E00088CCCFCD1F93FC0199278827BC01E89493
:1036F00011911032E9F3193010F01E30C8F31B326B
:1037000051F01D3249F4689406C00E94991B610F64
:10371000711D811D911D119110531A30B0F33EF4AB
:1037200090958095709561957F4F8F4F9F4F1F911A
:103730000895592F482F372F262F660F771F881F80
:10374000991F660F771F881F991F620F731F841FB1
:10375000951F660F771F881F991F0895A1E21A2EE3
:10376000AA1BBB1BFD010DC0AA1FBB1FEE1FFF1F25
:10377000A217B307E407F50720F0A21BB30BE40B75
:10378000F50B661F771F881F991F1A9469F76095BC
:103790007095809590959B01AC01BD01CF01089576
:1037A000EE0FFF1F0590F491E02D0994002E0830D4
:1037B00090F0982F872F762F652F542F432F322F7D
:1037C00022270850F4CF220F331F441F551F661FB6
:1037D000771F881F991F0A95B2F7002D089597FD4E
:1037E0001094002E083098F00850232F342F452FC6
:1037F000562F672F782F892F912DF4CF15949795F9
:1038000087957795679557954795379527950A95A5
:10381000AAF71124002D08950024A7FD00942A176B
:103820003005400550056005700580059005089538
:10383000FB01DC0102C001900D9241505040D8F7CD
:103840000895FB01DC018D91019080190110D9F3DD
:10385000990B0895FB01DC014150504030F08D91EF
:103860000190801919F40020B9F7881B990B08956D
:10387000F894FFCFF502F5020D08020E0F100305B4
:103880000609000000000000000000000000000029
:103890000000000000000000009603F6022303FE73
:1038A0000354033203460373690030002F42393654
:0A38B000002F423131002F540000B8
:107E0000112484B714BE81FFF0D085E080938100F7
:107E100082E08093C00088E18093C10086E0809377
:107E2000C20080E18093C4008EE0C9D0259A86E02C
:107E300020E33CEF91E0309385002093840096BBD3
:107E4000B09BFECF1D9AA8958150A9F7CC24DD24C4
:107E500088248394B5E0AB2EA1E19A2EF3E0BF2EE7
:107E6000A2D0813461F49FD0082FAFD0023811F036
:107E7000013811F484E001C083E08DD089C08234E0
:107E800011F484E103C0853419F485E0A6D080C0E4
:107E9000853579F488D0E82EFF2485D0082F10E0AE
:107EA000102F00270E291F29000F111F8ED06801E7
:107EB0006FC0863521F484E090D080E0DECF843638
:107EC00009F040C070D06FD0082F6DD080E0C81688
:107ED00080E7D80618F4F601B7BEE895C0E0D1E017
:107EE00062D089930C17E1F7F0E0CF16F0E7DF06D8
:107EF00018F0F601B7BEE89568D007B600FCFDCFD4
:107F0000A601A0E0B1E02C9130E011968C91119780
:107F100090E0982F8827822B932B1296FA010C0160
:107F200087BEE89511244E5F5F4FF1E0A038BF0790
:107F300051F7F601A7BEE89507B600FCFDCF97BE46
:107F4000E89526C08437B1F42ED02DD0F82E2BD052
:107F50003CD0F601EF2C8F010F5F1F4F84911BD097
:107F6000EA94F801C1F70894C11CD11CFA94CF0C13
:107F7000D11C0EC0853739F428D08EE10CD085E9AC
:107F80000AD08FE07ACF813511F488E018D01DD067
:107F900080E101D065CF982F8091C00085FFFCCF94
:107FA0009093C60008958091C00087FFFCCF809118
:107FB000C00084FD01C0A8958091C6000895E0E648
:107FC000F0E098E1908380830895EDDF803219F02E
:107FD00088E0F5DFFFCF84E1DECF1F93182FE3DFCA
:107FE0001150E9F7F2DF1F91089580E0E8DFEE27F6
:047FF000FF270994CA
:027FFE00040479
:00000001FF
